:0300000002097E74
:0C097E00787FE4F6D8FD7581200209C5E1
:100B3400120B71120B84120A0A120A0A120AC1EF6A
:0F0B440060031208CA3001F1C201120A8980EA67
:100A0A00AF097E00EF6406700B300008750E0A7598
:100A1A000F0A8011E50B75F00A84F50EE50B75F0E7
:100A2A000A8485F00FEF64074E700A3000077510CC
:100A3A000A75110A22E50A75F00A84F510E50A75A5
:070A4A00F00A8485F011227F
:100B5300D3EF9400EE940040147D6E7C00ED1D7085
:0D0B6300011CED4C70F7EF1F70E61E80E3E3
:010B70002262
:100A5100E4FBFA900000D2957F017E00120B53C295
:100A6100957F017E00120B53A3E582B42CE8E58348
:100A7100B401E37F647E00120B530BBB00010AEB50
:070A810064054A70CEC29526
:010A8800224B
:040AF1007F0A7E00FA
:100AF500D3EF9400EE940040147D6E7C00ED1D70E4
:0D0B0500011CED4C70F7EF1F70E61E80E341
:010B120022C0
:100AC10020B20C120AF120B20630B2FD7F012220C1
:100AD100B40C120AF120B40630B4FD7F032220B316
:100AE1000C120AF120B30630B3FD7F02227F0022EF
:100B8400E4F509750D19750C05850D0BF50AC2956B
:010B9400223E
:1008CA00EF700302097D64017037E509FD7C006061
:1008DA000964016005ED6402700A750906850D0B4D
:1008EA00E4F50A22ED64064C7009750907850C0BBC
:1008FA00F50A22ED64074C707AF509850D0BF50AA5
:10090A0022EF64037037E509FD7C00640670140564
:10091A000DE50DD3943C748094804003750D0185D8
:10092A000D0B22ED64074C704A050CE50CD3943C80
:10093A00748094804003750C01850C0B22EF6402CD
:10094A007031AF09FEEF6004640270047509012278
:10095A00EF64014E700475090222EF64034E6006CB
:10096A00EF64054E700475090422EF64044E7003A7
:04097A0075090522D4
:100A8900AF09EF64016005EF6404702BE50A702576
:100A9900E50B701B120A51E5096401700975090318
:100AA900850C0BF50A22E4F509850D0BF50A2215CB
:080AB9000B750A3B22150A220D
:0B0B95003F065B4F666D7D077F6F0021
:100B1300040E00000000010900010D19010C05017C
:100B23000B19010A0002120000C100C101010800F3
:100B71005389F0438901758CFC758A66D2A9D28CA0
:030B8100D2AF22CE
:03000B00020800E8
:0F080000C0E0C083C082C0D075D000C006C00762
:10080F00758CFC758A6643A00F758000E50814602F
:10081F001714604D1460572403705EE50E900B950E
:10082F0093F58053A0FE8051E50F900B9593F580C3
:10083F00AF097E00EF64016005EF640470053000BE
:10084F00028016EF4E6012EF64024E600CEF6403ED
:10085F004E6006EF64054E700343808053A0FD8009
:10086F0018E510900B9593F58053A0FB800BE511C5
:10087F00900B9593F58053A0F70508D3E5089403E3
:10088F007480948040037508000513E5137002050A
:10089F0012B4F407E512B40102B200C3E51394E8F1
:0E08AF00E51294034008751200751300D20183
:0D08BD00D007D006D0D0D082D083D0E0325A
:10098A00020B34E493A3F8E493A34003F68001F244
:10099A0008DFF48029E493A3F85407240CC8C3336E
:1009AA00C4540F4420C8834004F456800146F6DF3D
:1009BA00E4800B0102040810204080900B13E47EAF
:1009CA00019360BCA3FF543F30E509541FFEE49332
:1009DA00A360010ECF54C025E060A840B8E493A3F9
:1009EA00FAE493A3F8E493A3C8C582C8CAC583CA24
:1009FA00F0A3C8C582C8CAC583CADFE9DEE780BEDC
:010B330000C1
:00000001FF
